:020000040800F2
:1000000018290020A9010008B1010008B301000867
:10001000B5010008B7010008B901000800000000A0
:10002000000000000000000000000000BB0100080C
:10003000BD01000800000000BF0100083D3A0008B3
:10004000C3010008C3010008C3010008C301000880
:10005000C3010008C3010008C3010008C301000870
:10006000C3010008C3010008C3010008C301000860
:10007000C3010008C3010008C3010008C301000850
:10008000C3010008C3010008C3010008C301000840
:10009000C3010008C3010008C3010008C301000830
:1000A000C3010008C3010008C3010008C301000820
:1000B000593B0008C301000800000000C30100080C
:1000C000C3010008C3010008C3010008C301000800
:1000D000C3010008C3010008C3010008C3010008F0
:1000E000C3010008C3010008000000000000000078
:1000F0000000000000000000000000000000000000
:1001000000000000C301000800000000C301000857
:10011000C301000800000000C30100080000000047
:10012000C3010008C3010008C3010008C30100089F
:10013000C3010008C3010008C3010008000000005B
:10014000C3010008812B0008912B0008C30100089F
:10015000C3010008C3010008C3010008C30100086F
:10016000C3010008C3010008C3010008000000002B
:1001700000000000C30100080000000000000000B3
:10018000C3010008C3010008C3010008C30100083F
:10019000C3010008DFF80CD000F018F80048004751
:1001A0008D4F000818290020064880470648004760
:1001B000FEE7FEE7FEE7FEE7FEE7FEE7FEE7FEE717
:1001C000FEE7FEE7093B000895010008064C074DD5
:1001D00006E0E06840F0010394E807009847103417
:1001E000AC42F6D3FFF7DAFFFC5300081C540008BA
:1001F00010B54FF40C7004F0E5FE4349086000228E
:1002000042A14148006804F0CFF84149087008460F
:10021000007818B100203F49086002E001203D4904
:1002200008600A223C493D4804F0ECF8384908705F
:100230000846007818B100203649086002E0022024
:1002400034490860364B11223649344804F0BFFA6D
:100250002F4908700846007818B100202D49086021
:1002600002E003202B4908602C4804F08DF828494F
:1002700008700846007818B100202649086002E09E
:1002800004202449086001222349244804F0BAF8D4
:100290001F4908700846007818B100201D49086001
:1002A00002E005201B4908601F4B64221F491B48C0
:1002B00004F05AF9164908700846007818B1002071
:1002C0001449086002E0062012490860134804F04F
:1002D0005BF80F4908700846007818B100200D49F6
:1002E000086002E007200B4908600F4800680C49CD
:1002F0000968884203D140F29A2006490860024802
:10030000006804F071FD10BD4800002000000000EE
:100310007000002014000020650000208C020020E6
:100320004C0000205400002050000020B4040020A5
:10033000F8B50246002500200090C868B0F1804F53
:1003400000D000E000BF00BF92F85800012801D1A2
:100350000220F8BD012082F8580000BF10688068B4
:10036000C0F38000002872D14868052812D21068B6
:10037000006B0E7906EB460677001F26BE40B043A1
:100380000F7907EB47077F000E68BE4030431668C1
:10039000306343E048680A2814D21068406B0E7935
:1003A000761F06EB460677001F26BE40B0430F7946
:1003B0007F1F07EB47077F000E68BE40304316687B
:1003C00070632BE048680F2814D21068806B0E7998
:1003D0000A3E06EB460677001F26BE40B0430F7963
:1003E0000A3F07EB47077F000E68BE4030431668A0
:1003F000B06313E01068C06B0E790F3E06EB460643
:1004000077001F26BE40B0430F790F3F07EB470729
:100410007F000E68BE4030431668F0631068806845
:1004200000F00C0008B1012000E00020002873D18A
:1004300008680A2829D300BF8868B0F1004F07D1A7
:100440001068406940F000401668706108E0A8E15B
:10045000886828B91068406920F00040166870610B
:10046000106880690E780A3E06EB46070726BE40F4
:10047000B0438E6826F000460F780A3F07EB470727
:10048000BE4030431668B06126E000BF8868B0F116
:10049000004F06D11068406940F000401668706156
:1004A00007E0886828B91068406920F000401668A5
:1004B0007061106840690E7806EB46070726BE405B
:1004C000B0438E6826F000460F7807EB4707BE4022
:1004D00030431668706100BF48691668F668C6F355
:1004E000C106760000FA06F40869012806D0022841
:1004F00013D003281FD0042839D12AE01068006ED9
:10050000AE4E30400E784FF0004747EA86662643ED
:1005100030431668306663E063E01068406EA74EB3
:1005200030400E784FF0004747EA86662643304356
:100530001668706654E01068806EA04E30400E78E9
:100540004FF0004747EA8666264330431668B06698
:1005500046E01068C06E994E30400E784FF000476C
:1005600047EA8666264330431668F06638E010682E
:10057000006E00F0F8400E78B0EB866F05D1106881
:10058000006E20F00040166830661068406E00F083
:10059000F8400E78B0EB866F05D11068406E20F001
:1005A0000040166870661068806E00F0F8400E78A3
:1005B000B0EB866F05D11068806E20F000401668A1
:1005C000B0661068C06E00F0F8400E78B0EB866F31
:1005D00005D11068C06E20F000401668F06600BFBC
:1005E00000BF1068806800F00300012806D1106881
:1005F000006800F0010008B1012000E000200028A0
:100600007ED1C868B0F1804F0AD01068D0F8B00031
:100610000F780126BE40B0431668C6F8B0005FE010
:100620001068D0F8B0000F780126BE40304316683D
:10063000C6F8B0000868092829D300BF8868B0F15F
:10064000004F06D11068406940F0004016687061A4
:1006500007E0886828B91068406920F000401668F3
:100660007061106886690878093800EB4007072038
:10067000B84026EA00008E6826F000470E78093E52
:1006800006EB4606B74038431668B06128E000BF65
:100690008868B0F1004F06D11068406940F0004012
:1006A0001668706107E0886828B91068406920F012
:1006B000004016687061106840690E78761C06EB81
:1006C00046070726BE40B0438E6826F000460F78E6
:1006D0007F1C07EB4707BE4030431668706100BFC0
:1006E000374B0868112803D1986800F4000070B1F6
:1006F0000868122803D1986800F0807038B100E0D3
:1007000030E0086870BB986800F4800050BB106847
:10071000806800F00300012806D11068006800F02E
:10072000010008B1012000E0002098BB00BF08686C
:10073000112818D1234E1068B04237D1986840F480
:100740000000986020480068204EB0FBF6F0C0EB37
:100750000010C000009002E00098401E0090009839
:100760000028F9D122E00868122808D1154E106837
:10077000B0421BD1986840F08070986016E008681D
:10078000A0B9104E1068B04210D1986840F48000B3
:1007900098600BE0FFE7D06D40F02000D0650125A8
:1007A00004E0D06D40F02000D065012500BF00209E
:1007B00082F8580000BF2846CBE5000000F0FF0398
:1007C00000030450000004507800002080841E00C4
:1007D000F8B5044600270025002000900CB9012040
:1007E000F8BD206918B1606A012800D100BFE06D32
:1007F00030B9204600F0E8F80020206684F8580060
:100800002068806800F00050B0F1005F05D12068DA
:10081000806820F00050216888602068806800F0BF
:100820008050A8B92068806840F0805021688860B6
:10083000614800686149B0FBF1F000EB80004000C6
:10084000009002E00098401E009000980028F9D126
:100850002068806800F0805040B9E06D40F01000E2
:10086000E065206E40F0010020660127E06D00F099
:100870001000002877D120688068C0F3800000282D
:10088000F8D1E06D20F4807040F00200E0654C4E3D
:100890002068806800F00300012806D12068006805
:1008A00000F0010008B1012000E0002030B900BFD5
:1008B000B06820F47C1061680843B060A16BE06907
:1008C00041EA4030E1680843A1680843A18C40EA4E
:1008D0000145606A012803D1208D401E45EA40454C
:1008E000E06A012805D0206B18B1D4E90B01084358
:1008F00005432068C0683349084028432168C86020
:100900002068806800F00C0008B1012000E00020A1
:1009100040BB216DA06941EA8031606B41EA40052E
:100920002068C06844F20601884328432168C860F3
:10093000E06B012818D1E06A012801D0206B00B9D2
:1009400000BF206C40F00101606C0843A16C0843BB
:10095000E16C08432168096940F2FD729143084344
:100960002168086106E01FE02068006920F00100AE
:10097000216808612069012809D12068006B20F0F6
:100980000F00216A491E08432168086305E02068BA
:10099000006B20F00F0021680863E06D20F002007A
:1009A00040F00100E06504E0E06D40F01000E0651B
:1009B0000127384614E700007800002080841E00DC
:1009C0000003045007C0F0FF10B586B004460F497D
:1009D0002068884217D100BF0D48C06C40F4005019
:1009E0000B49C8640846C06C00F40050009000BF7A
:1009F00000BF012001900B2002900020039001A96C
:100A0000044800F009F806B010BD000000000450D2
:100A1000001002400008004878B503460022002478
:100A20000020CBE0012696400D6805EA0604002C64
:100A300072D04D68022D02D04D68122D13D1D60808
:100A400003F1200555F826005507EE0E0F25B54099
:100A5000A8435607F60E0D69B5402843D60803F1A2
:100A6000200545F82600186856000325B540A84320
:100A70000D7905F003055600B540284318604D6810
:100A8000012D08D04D68022D05D04D68112D02D0E2
:100A90004D68122D13D1986856000325B540A84320
:100AA0005600CD68B54028439860586801259540A8
:100AB000A8430D79C5F30015954028435860D868C0
:100AC00056000325B540A84356008D68B54028431D
:100AD000D8604D6805F08055B5F1805F6DD100BFDD
:100AE000394D2D6E45F00105374E356635462D6E74
:100AF00005F00105009500BF00BF4FEAB635960826
:100B000055F8260095072E0F0F25B540A843B3F1E1
:100B1000904F02D1002515E04FE02C4DAB4201D1A2
:100B200001250FE02A4DAB4201D102250AE0294DF3
:100B3000AB4201D1032505E0274DAB4201D104258D
:100B400000E007259607360FB5402843234D960849
:100B500045F82600224D2868A0434D6805F48035ED
:100B6000B5F5803F00D120431D4D28602D1D28681C
:100B7000A0434D6805F40035B5F5003F00D1204392
:100B8000174D2D1D28602D1D2868A0434D6805F4C4
:100B90008015B5F5801F00D12043114D0835286020
:100BA0002D1D2868A0434D6805F40015B5F5001FFC
:100BB00000D120430A4D0C352860521C0D68D540E9
:100BC000002D7FF42FAF78BD0010024000040048D4
:100BD00000080048000C00480010004808000140D0
:100BE000000401400AB1816100E0816270470000A9
:100BF0000148006870470000740000200248006847
:100C0000401C0149086070477400002010B5084876
:100C1000006840F4807006490860032000F04CFA38
:100C2000002000F007F800F0B1F9002010BD00002E
:100C30000020024070B50446074800684FF47A71FE
:100C4000B0FBF1F5284601F06FFD00222146501E51
:100C500000F0F1F9002070BD780000201E4A016804
:100C6000914213D11D490968491C1C4A1160114663
:100C700009680A2905D10121194A11700021174A72
:100C8000116018490968491C164A1160164A016822
:100C900091421FD115490968491C144A1160114637
:100CA0000968782916D112490968491C104A11604F
:100CB00000210E4A11600F490968491C0D4A116054
:100CC00011460968022905D10521054A1170002144
:100CD000084A116070470000007C004000000020BE
:100CE000300000200C000020009400400400002090
:100CF000100000200800002070477047704702462F
:100D0000022082F836005068012809D0906AB0F5B8
:100D1000000F05D11068C06820F460601368D860C7
:100D20001068806840F01000136898601068806850
:100D300040F00200136898601068006940F00100FC
:100D400013681861106881611068006940F0040040
:100D500013681861012082F8360000207047704740
:100D6000704710B504462068006800F0010050B1DB
:100D70002068806800F0010028B1012021684860E7
:100D80002046FFF7BAFF20680068C0F3400050B16A
:100D900020688068C0F3400028B1022021684860C4
:100DA0002046FFF75BFF20680068C0F3800050B169
:100DB00020688068C0F3800028B104202168486062
:100DC000204600F0E1F820680068C0F3C00050B190
:100DD00020688068C0F3C00028B1082021684860FE
:100DE0002046FFF78BFF20680068C0F3001050B169
:100DF00020688068C0F3001028B110202168486086
:100E00002046FFF779FF20680068C0F3401050B11A
:100E100020688068C0F3401028B120202168486015
:100E20002046FFF79DFF20680068C0F3801050B196
:100E300020688068C0F3801028B140202168486095
:100E40002046FFF78CFF10BD70B5044600250CB995
:100E5000012070BD6068012800D100BF4FF6FF710E
:100E60006069884200D000BF94F8360028B900209D
:100E700084F83500204600F049F8022084F8360056
:100E80002068C5686068012801D125F01E054FF66D
:100E9000FF716069884202D04EF2C0008543194854
:100EA0000540D4E901010843216A0843616A084307
:100EB000A16A084305436068012803D1D4E90310FF
:100EC000084305434FF6FF716069884205D0D4E9B5
:100ED00005100843E169084305432068C5600A49D5
:100EE0002068884205D1D4E90B01084321680862D3
:100EF00002E02168E06A0862012084F836000020E0
:100F0000A7E70000FEF119FF007C004038B5044659
:100F10001A492068884216D100BF1948806D40F0F8
:100F20000040174988650846806D00F00040009039
:100F300000BF00BF00221146412000F07CF8412094
:100F400000F06CF819E00F492068884215D100BF05
:100F50000B48C06D40F020000949C8650846C06DC7
:100F600000F02000009000BF00BF00221146422088
:100F700000F061F8422000F051F838BD007C0040DC
:100F800000100240009400407047000008B500BF08
:100F90002148006E40F001001F4908660846006EB7
:100FA00000F00100009000BF00BF00BF0846806D48
:100FB00040F0805088650846806D00F080500090B9
:100FC00000BF00BF032000F077F8002211466FF049
:100FD0000B0000F030F8002211466FF00A0000F01C
:100FE0002AF8002211466FF0090000F024F80022D0
:100FF0001146501F00F01FF800221146101F00F08C
:101000001AF800221146901E00F015F80022114631
:10101000501E00F010F808BD0010024000BF00F0A4
:101020001F02012191404209920002F1E022C2F820
:10103000001100BF70472DE9F05F80460D4616464F
:10104000002702F013F8074639462A46334601F0D6
:101050000700C0F1070ABAF1040F02D94FF0040AE1
:1010600001E0C0F1070AD14600F1040ABAF1070F06
:1010700002D24FF0000A01E0A0F1030AD4464FF07B
:10108000010A0AFA09FAAAF1010A0AEA020A0AFAA4
:101090000CFA4FF0010B0BFA0CFBABF1010B0BEA56
:1010A000030B4AEA0B042146404601F0E7FF00F03B
:1010B00000B830BCBDE8C09F00BF00F00702064B7F
:1010C00019684FF6FF031940044B0B4343EA022112
:1010D000014B196000BF70470CED00E00000FA05FD
:1010E00002460021B2F5007F29D11D48006800F4B6
:1010F000C060B0F5007F31D01948006820F4C060AE
:1011000040F40070164B186016480068164BB0FB90
:10111000F3F0322300FB03F100E0491E31B1104827
:10112000406900F48060B0F5806FF6D00C484069EB
:1011300000F48060B0F5806F10D10320704708483C
:10114000006800F4C060B0F5806F07D00448006804
:1011500020F4C06040F48060014B18600020EDE78F
:10116000007000407800002040420F0002480068F4
:1011700000F4C06070470000007000402DE9F843A3
:101180000446002600270025A846208800F40060B9
:10119000B0F5006F26D1E06C68B1B0F5000F03D058
:1011A000B0F5400F0ED10CE0F748C06840F4803035
:1011B000F549C86008E00021201D01F073FF0546D5
:1011C00002E001E0012500BF00BF55B9EE488830BC
:1011D000006820F44000E16C0843EB49C1F8880046
:1011E00000E0A846206800F40030B0F5003F74D15C
:1011F0004FF00009E448806D00F0805078B900BFDE
:10120000E148806D40F08050DF4988650846806D78
:1012100000F08050009000BF00BF4FF00109DB4894
:10122000006840F48070D9490860FFF7E1FC074688
:1012300006E0FFF7DDFCC01B022801D9032505E00D
:10124000D248006800F480700028F2D000BF7DBB57
:10125000CD489030006800F44076CEB1606EB04268
:1012600016D0C9489030006820F44076C648D0F8BF
:10127000900040F48030C449C1F890000846D0F88E
:10128000900020F48030C1F890000846C0F89060CB
:1012900006F00100A8B1FFF7ABFC074609E0FFF735
:1012A000A7FCC01B41F28831884202D9032507E020
:1012B00016E0B5489030006800F002000028EED03B
:1012C00000BF5DB9B0489030006820F44070616E96
:1012D0000843AD49C1F8900003E00CE0A84600E0E7
:1012E000A846B9F1010F05D1A748806D20F08050C4
:1012F000A549886500BF207800F0010048B1A248E8
:101300008830006820F00300216A08439E49C1F834
:101310008800207800F00200022809D19A4888301D
:10132000006820F00C00616A08439749C1F8880002
:10133000207800F00400042809D193488830006820
:1013400020F03000A16A08438F49C1F88800207856
:1013500000F00800082809D18B488830006820F088
:10136000C000E16A08438849C1F88800207800F08D
:101370002000202809D184488830006820F440608B
:10138000216B08438049C1F88800208800F4007070
:10139000B0F5007F09D17C488830006820F44020F7
:1013A000616C08437849C1F88800208800F48060A7
:1013B000B0F5806F09D174488830006820F440107F
:1013C000A16C08437049C1F88800207800F0400003
:1013D000402809D16C488830006820F44050616B87
:1013E00008436949C1F88800207800F0800080280F
:1013F00009D165488830006820F44040A16B08435B
:101400006149C1F88800208800F48070B0F5807FC1
:1014100009D15D488830006820F44030E16B084312
:101420005949C1F88800206800F48010B0F5801F89
:1014300009D155489C30006820F00300216C084316
:101440005149C1F89C00208800F40050B0F5005FBD
:101450001FD14D488830006820F04060216D08435E
:10146000494988310860206DB0F1006F06D14648C7
:10147000C06840F480104449C8600AE0206DB0F1B3
:10148000806F06D10121201D01F00CFE054605B13B
:10149000A846206800F40020B0F5002F1FD13A487C
:1014A0008830006820F04060616D0843364988311B
:1014B0000860606DB0F1006F06D13348C06840F439
:1014C00080103149C8600AE0606DB0F1806F06D1CC
:1014D0000121201D01F0E6FD054605B1A846206862
:1014E00000F48020B0F5802F1FD127488830006895
:1014F00020F04060A16D0843234988310860A06D49
:10150000B0F1006F06D12048C06840F480101E4939
:10151000C8600AE0A06DB0F1806F06D10121201DE6
:1015200001F0C0FD054605B1A846208800F48040C2
:10153000B0F5804F14D114488830006820F0405036
:10154000E16D0843104988310860E06DB0F1805FBB
:1015500006D10221201D01F0A5FD054605B1A846D2
:10156000206800F48030B0F5803F09D1064888300B
:10157000006820F00040216E08430349C1F888004C
:101580004046BDE8F88300000010024000700040B3
:1015900070B504460D4600267048006800F007004C
:1015A000A8420ED26D48006820F0070028436B491E
:1015B00008600846006800F00700A84201D001203A
:1015C00070BD207800F00100002879D06068032801
:1015D00006D16348006800F00070D8B90120EFE739
:1015E0006068022806D15E48006800F4003088B9BF
:1015F0000120E5E7606830B95948006800F0020052
:1016000040B90120DCE75648006800F4806008B962
:101610000120D5E75248806820F003006168084344
:101620004F498860FFF7E4FA06466068032810D146
:1016300008E0FFF7DDFA801B41F28831884201D9CA
:101640000320BDE74648806800F00C000C28F0D16C
:1016500036E06068022810D108E0FFF7C9FA801B65
:1016600041F28831884201D90320A9E73C488068CB
:1016700000F00C000828F0D122E0606880B908E092
:10168000FFF7B6FA801B41F28831884201D9032066
:1016900096E73348806800F00C000028F0D10FE096
:1016A00008E0FFF7A5FA801B41F28831884201D992
:1016B000032085E72A48806800F00C000428F0D158
:1016C000207800F00200022807D12548806820F029
:1016D000F000A1680843224988602048006800F0B3
:1016E0000700A8420ED91D48006820F007002843D3
:1016F0001A4908600846006800F00700A84201D0B7
:1017000001205DE7207800F00400042807D1144888
:10171000806820F4E060E16808431149886020781F
:1017200000F00800082808D10D48806820F46050B7
:10173000216940EAC1000A49886000F01DF80849A3
:101740008968C1F30311074A515CC8400649086023
:101750000020FFF76FFA002032E70000002002406F
:1017600000100240B45300087800002001480068CF
:101770007047000078000020F0B50021002300240D
:101780000225022200203B4EB66806F00C065EB130
:10179000384EB66806F00C060C2E1ED1354EF66893
:1017A00006F00306012E18D1324E366806F0080600
:1017B0002EB9304E94363668C6F3032103E02D4E21
:1017C0003668C6F303112C4E56F82110294EB66820
:1017D00006F00C0686B908460EE0264EB66806F0FE
:1017E0000C06042E01D1254806E0224EB66806F00C
:1017F0000C06082E00D122481E4EB66806F00C06D4
:101800000C2E36D11B4EF66806F00304194EF6680E
:10181000C6F30216721C012C19D0022C02D0032C24
:1018200014D109E0154EB6FBF2F6124FFF68C7F36C
:10183000062706FB07F313E0114EB6FBF2F60D4F39
:10184000FF68C7F3062706FB07F309E000BFB1FBFB
:10185000F2F6084FFF68C7F3062706FB07F300BF41
:1018600000BF044EF668C6F34166761C7500B3FBF4
:10187000F5F0F0BD00100240CC5300080024F40045
:1018800000127A00F8B504460025207800F0100018
:1018900010286ED1F848806800F00C00002869D14B
:1018A000F548006800F0020018B1A06908B90120ED
:1018B000F8BDF148216A006800F0080020B1EE4848
:1018C000006800F0F00005E0EB489430006800F498
:1018D0007060000981421FD9206A01F0A9FC08B19B
:1018E0000120E5E700BFE448006840F00800E24955
:1018F00008600846006820F0F000216A0843DE49CD
:10190000086000BF0846406820F47F40E16940EA73
:101910000120D94948601EE000BFD748006840F068
:101920000800D54908600846006820F0F000216AE8
:101930000843D149086000BF0846406820F47F4052
:10194000E16940EA0120CC494860206A01F070FC5E
:1019500008B10120ACE7FFF70FFFC7498968C1F361
:101960000311C64A515CC840C54908600020FFF712
:1019700061F94AE0A06980B3BF48006840F0010007
:10198000BD490860FFF734F9054606E0FFF730F976
:10199000401B022801D903208AE7B748006800F0FD
:1019A00002000028F2D000BFB348006840F00800F1
:1019B000B14908600846006820F0F000216A084339
:1019C000AD49086000BF0846406820F47F40E169E7
:1019D00040EA0120A849486017E0FFE7A6480068F0
:1019E00020F00100A4490860FFF702F9054606E06F
:1019F000FFF7FEF8401B022801D9032058E79E4854
:101A0000006800F002000028F2D1207800F0010008
:101A1000002868D09848806800F00C0008280BD097
:101A20009548806800F00C000C280ED19248C068E0
:101A300000F00300032808D18F48006800F400304C
:101A400088B3606878BB012032E700BF6068B0F5FA
:101A5000803F06D18848006840F48030864908609D
:101A60001AE06068B0F5A02F0BD18348006840F4FD
:101A70008020814908600846006840F48030086092
:101A80000AE07D48006820F480307B490860084601
:101A9000006820F48020086000BF606890B1FFF704
:101AA000A7F8054607E01EE0FFF7A2F8401B6428F0
:101AB00001D90320FCE67048006800F400300028DB
:101AC000F2D010E0FFF794F8054606E0FFF790F833
:101AD000401B642801D90320EAE66748006800F447
:101AE00000300028F2D1207800F0020002285ED1F8
:101AF0006148806800F00C0004280BD05E488068C4
:101B000000F00C000C2818D15B48C06800F00300FE
:101B1000022812D15848006800F4806018B1E068CB
:101B200008B90120C4E65448406820F0FE40217CFA
:101B300040EA01605049486039E0E06800B34E482F
:101B4000006840F480704C490860FFF751F8054682
:101B500006E0FFF74DF8401B022801D90320A7E655
:101B60004548006800F480600028F2D04248406890
:101B700020F0FE40217C40EA01603F49486016E0C9
:101B80003D48006820F480703B490860FFF730F85A
:101B9000054606E0FFF72CF8401B022801D9032078
:101BA00086E63548006800F480600028F2D120788D
:101BB00000F00800082836D16069D0B12E48943072
:101BC000006840F001002C49C1F89400FFF710F8BC
:101BD000054606E0FFF70CF8401B022801D9032058
:101BE00066E625489430006800F002000028F1D035
:101BF00019E021489430006820F001001E49C1F826
:101C00009400FEF7F5FF054606E0FEF7F1FF401BE6
:101C1000022801D903204BE617489430006800F0F1
:101C200002000028F1D1207800F0040004286ED1D1
:101C300000261148806D00F0805070B900BF0E483A
:101C4000806D40F080500C4988650846806D00F03A
:101C50008050009000BF00BF01260A48006800F4D1
:101C60008070F0B90748006840F48070054908604A
:101C7000FEF7BEFF05460EE000100240B453000818
:101C80007800002000700040FEF7B2FF401B0228E1
:101C900001D903200CE69D48006800F480700028FC
:101CA000F2D000BFA068012808D19948006840F030
:101CB000010097499039C1F8900021E0A0680528FB
:101CC0000FD19348006840F0040091499039C1F861
:101CD00090000846D0F8900040F00100C1F8900054
:101CE0000EE08B48006820F0010089499039C1F866
:101CF00090000846D0F8900020F00400C1F8900051
:101D000000BFA068A0B1FEF773FF054609E02DE013
:101D1000FEF76EFF401B41F28831884201D9032053
:101D2000C6E57B48006800F002000028F0D012E011
:101D3000FEF75EFF054608E0FEF75AFF401B41F242
:101D40008831884201D90320B2E57148006800F06B
:101D500002000028F0D1012E07D16D489038806D27
:101D600020F080506A499039886500BF207800F0E3
:101D70002000202838D1606AD8B165480830006852
:101D800040F0010062499039C1F89800FEF730FF39
:101D9000054606E0FEF72CFF401B022801D9032070
:101DA00086E55B480830006800F002000028F1D0AA
:101DB0001AE057480830006820F001005449903973
:101DC000C1F89800FEF714FF054606E0FEF710FF85
:101DD000401B022801D903206AE54D4808300068FD
:101DE00000F002000028F1D1A06AE8B3484890381A
:101DF000806800F00C000C2874D0A06A022853D12F
:101E000043489038006820F080704149903908605C
:101E1000FEF7EEFE054606E0FEF7EAFE401B02284E
:101E200001D9032044E53A489038006800F000707A
:101E30000028F1D1206B401E0101606B41EA0020B7
:101E4000E16A0843A18F0122C2EB510140EA4151EE
:101E50004020005DC2EB500041EA40613820005D47
:101E600041EAC0602A4900E04EE09039C860084667
:101E7000006840F0807008600846C06840F08070DC
:101E8000C860FEF7B5FE054606E0FEF7B1FE401B52
:101E9000022801D903200BE51D489038006800F0A6
:101EA00000700028F1D02FE019489038006820F029
:101EB00080701749903908600846006800F000609B
:101EC00020B90846C06820F00300C8601048903868
:101ED000C068104908400E499039C860FEF788FE76
:101EE000054607E00EE0FEF783FE401B022801D9FD
:101EF0000320DDE406489038006800F000700028F8
:101F0000F1D101E00120D3E40020D1E400700040D1
:101F100090100240FFFFEEFE02460023106800F121
:101F2000500303EB81031868704710B50023046861
:101F300004F1500303EB81031A6010BD10B5044691
:101F40000CB9012010BD94F8210028B9002084F8B4
:101F50002000204600F066F8022084F8210000BF2F
:101F6000CA202168486253202168486200BF204689
:101F700001F0C6F948B100BFFF202168486200BFE8
:101F8000042084F821000120DCE7206880682449CF
:101F9000084021688860216960680843A169084396
:101FA000216889680843216888602168E0680861C1
:101FB00020680169208941EA0040216808612068A1
:101FC000C06820F080002168C8602068806800F048
:101FD000200068B9204600F06DF948B100BFFF202D
:101FE0002168486200BF042084F821000120A9E78D
:101FF0002068C06C20F003002168C8646169E06952
:1020000008432168C96C08432168C86400BFFF20E9
:102010002168486200BF012084F82100002091E778
:10202000BFFF8FFF064A0168914207D10549096841
:1020300041F40041034A903AC2F890107047000002
:1020400000280040901002402DE9F04104460D4662
:102050001646002700BF94F82000012802D1022074
:10206000BDE8F081012084F8200000BF022084F840
:1020700021004EB9687800F01000102804D168786B
:1020800000F0EF000A30687086B9E87801F02BF9AB
:102090000304687801F027F943EA0023A87801F0E7
:1020A00022F90343287843EA403711E0687801F0C9
:1020B0000FF90746A87801F00BF90746E878000405
:1020C000697840EA0120A9780843297840EA413735
:1020D00000BFCA202168486253202168486200BFBF
:1020E000204601F00DF970B100BFFF202168486261
:1020F00000BF042084F8210000BF002084F82000E5
:1021000000BF0120ACE718483840216848602068CB
:10211000C06820F080002168C8602068806800F0F6
:10212000200090B9204600F0C5F870B100BFFF2034
:102130002168486200BF042084F8210000BF00200D
:1021400084F8200000BF01208AE700BFFF2021683B
:10215000486200BF012084F8210000BF002084F8FD
:10216000200000BF00BF7BE73FFFFF002DE9F041EB
:1021700004460D461646002700BF94F820000128AB
:1021800002D10220BDE8F081012084F8200000BFC8
:10219000022084F82100CEB92068806800F0400059
:1021A00000B102E00020E87000BF287801F09BF841
:1021B0000304687801F097F843EA0023A87801F057
:1021C00092F80343E87843EA004716E02068806805
:1021D00000F0400020B1287801F07AF8074602E0CC
:1021E0000020E87000BF28780004697840EA0120E8
:1021F000A9780843E97840EA014700BFCA2021686E
:10220000486253202168486200BF204601F078F8F8
:1022100070B100BFFF202168486200BF042084F82D
:10222000210000BF002084F8200000BF0120A9E7A2
:102230001F483840216808602068806820F48020AA
:1022400021688860D5E9030108432168896808434B
:10225000216888602068C06820F080002168C8601C
:102260002068806800F0200090B9204600F022F835
:1022700070B100BFFF202168486200BF042084F8CD
:10228000210000BF002084F8200000BF012079E772
:1022900000BFFF202168486200BF012084F82100B0
:1022A00000BF002084F8200000BF00BF6AE70000E4
:1022B0007F7F7F0070B5044600252068C06820F04D
:1022C000A0002168C860FEF793FC054607E0FEF712
:1022D0008FFC401BB0F57A7F01D9032070BD2068C8
:1022E000C06800F020000028F1D00020F6E770B5AB
:1022F00004460CB9012070BD606A00B900BF00211E
:10230000A16294F85D0028B9002084F85C002046A2
:1023100000F04EF8022084F85D002068006820F08C
:10232000400021680860E068B0F5E06F01D9002541
:1023300001E04FF48055E068B0F5706F05D0E068BB
:10234000B0F5E06F01D00021A162206B40B9E068D8
:10235000B0F5E06F02D90221216301E00121216380
:10236000D4E9010108432169084361690843218BCD
:1023700001F400710843E1690843216A0843A16A36
:102380000843216808600421A06901EA1040616ADD
:102390000843616B0843E1680843284321684860AB
:1023A00000202066012084F85D000020A3E70000E3
:1023B00010B586B004462949206888421DD100BF67
:1023C0002748006E40F48050254908660846006E94
:1023D00000F48050009000BF00BFC2200190022096
:1023E000029000200390032004900520059001A98D
:1023F0004FF09040FEF710FB2EE01A49206888420B
:102400002AD100BF1648806D40F480401449886589
:102410000846806D00F48040009000BF00BF0C2093
:1024200001900220029000200390032004900520D8
:10243000059001A90C48FEF7EFFA4FF48060019077
:1024400002200290002003900320049005200590B4
:1024500001A90648FEF7E0FA06B010BD00300140C1
:102460000010024000380040000800480004004806
:102470002DE9FC5F04460D4616461F46DDF8308008
:102480004FF0000A0020019081464FF0010B0090B0
:1024900000BF94F85C00012802D1022000F02CB9A2
:1024A000012084F85C0000BFFEF7A2FB814694F88F
:1024B0005DA060680190BAF1010F0BD00198B0F5F2
:1024C000827F04D1A06810B9BAF1040F02D00220B3
:1024D000009007E10DB106B117B90120009001E1AC
:1024E00094F85D00042802D0052084F85D000020E7
:1024F00020662664A4F84670A4F84470A563E787B4
:10250000A787E0642065E068B0F5E06F03D8B4F811
:102510004600012806D92068406820F480502168D0
:10252000486005E02068406840F4805021684860B9
:102530002068006800F04000402805D0206800684E
:1025400040F0400021680860E068B0F5E06F47D9CE
:10255000606810B1E08F012806D128882168C86022
:10256000AD1CE08F401EE08732E0BBF1000F10D0C1
:10257000E08F70B12068806800F00200022808D166
:1025800028882168C860AD1CE08F401EE0874FF0AE
:10259000000BB4F8460078B12068806800F00100B4
:1025A00050B12068C0683080B61CB4F84600401EA8
:1025B000A4F846004FF0010B08F1010040B1FEF70E
:1025C00017FBA0EB0900404502D30320009089E0EF
:1025D000E08F0028C9D1B4F846000028C5D174E0C6
:1025E000606810B1E08F012811D1E08F012807D970
:1025F00028882168C860AD1CE08F801EE08706E057
:1026000015F8010B21680873E08F401EE08755E044
:10261000BBF1000F1BD0E08FC8B12068806800F0CC
:102620000200022813D1E08F012807D928882168E9
:10263000C860AD1CE08F801EE08706E015F8010B36
:1026400021680873E08F401EE0874FF0000BB4F85C
:10265000460038B32068806800F0010010B3B4F879
:102660004600012813D92068C0683080B61CB4F831
:102670004600801EA4F84600B4F8460001280FD892
:102680002068406840F480502168486008E0206875
:10269000007B06F8010BB4F84600401EA4F8460083
:1026A0004FF0010B08F1010040B1FEF7A1FAA0EBD9
:1026B0000900404502D30320009013E0E08F00287A
:1026C000A6D1B4F846000028A2D14A464146204689
:1026D00001F0D6F808B120202066206E08B1012054
:1026E000009000BF012084F85D0000BF002084F846
:1026F0005C0000BF0098D1E63CBCBDE8C09F042848
:1027000008D14FF0E021096941F004014FF0E022C7
:10271000116107E04FF0E021096921F004014FF059
:10272000E02211617047704770B504462546681E67
:10273000B0F1807F01D301200FE0681E4FF0E0214F
:1027400048610F214FF0FF3000F098FC00204FF05F
:10275000E021886107200861002070BD10B5FFF7F7
:10276000E2FF10BD7047704730B502460B4600BF10
:1027700092F83C00012801D1022030BD012082F8EE
:102780003C0000BF10684168106884680D4D1068F7
:10279000A84203D121F470015868014321F070016F
:1027A0001868014324F0800498680443106841606D
:1027B0001068846000BF002082F83C0000BF00BFAA
:1027C000DBE70000002C014010B504460CB90120E5
:1027D00010BD94F83D0028B9002084F83C00204644
:1027E00000F00CF8022084F83D00211D206801F063
:1027F000BBF9012084F83D000020E9E738B5044624
:102800002068B0F1804F15D100BF0B48806D40F0BB
:102810000100094988650846806D00F001000090BC
:1028200000BF00BF002211461C20FEF704FC1C2044
:10283000FEF7F4FB38BD0000001002402DE9F04126
:1028400004460D46002600BF94F83C00012802D142
:102850000220BDE8F081012084F83C0000BF022086
:1028600084F83D00206886684148064026F47F468B
:1028700020688660286850283CD00CDC202861D075
:1028800004DC002854D0102866D156E030285ED0F1
:10289000402861D142E0602836D070280ED0B0F5D3
:1028A000805F03D0B0F5005F56D116E020688068E5
:1028B0002F4970310840216888604EE0D5E9021345
:1028C0006A68206801F092F9206886682848064006
:1028D00046F07706206886603FE0D5E902136A6813
:1028E000206801F083F92068806840F48040216806
:1028F000886032E0EA686968206801F08DF950214B
:10290000206801F07FF928E0EA686968206801F032
:1029100098F96021206801F075F91EE0EA6869689D
:10292000206801F079F94021206801F06BF914E08A
:102930000021206801F066F90FE01021206801F005
:1029400061F90AE02021206801F05CF905E03021FE
:10295000206801F057F900E000BF00BF012084F8B3
:102960003D0000BF002084F83C0000BF00BF70E7BE
:1029700088FFFEFF704710B5044620680069C0F369
:102980004000D8B12068C068C0F34000B0B16FF01B
:10299000020021680861012020772068806900F02A
:1029A000030018B12046FFF7E5FF05E0204600F0E0
:1029B000ADF8204600F0ABF80020207720680069D1
:1029C000C0F38000D8B12068C068C0F38000B0B107
:1029D0006FF0040021680861022020772068806978
:1029E00000F4407018B12046FFF7C4FF05E0204610
:1029F00000F08CF8204600F08AF80020207720684C
:102A00000069C0F3C000D8B12068C068C0F3C0003E
:102A1000B0B16FF0080021680861042020772068B9
:102A2000C06900F0030018B12046FFF7A3FF05E0DE
:102A3000204600F06BF8204600F069F8002020776F
:102A400020680069C0F30010D8B12068C068C0F3E6
:102A50000010B0B16FF010002168086108202077E5
:102A60002068C06900F4407018B12046FFF782FF6B
:102A700005E0204600F04AF8204600F048F8002023
:102A800020772068006900F0010058B12068C06814
:102A900000F0010030B16FF00100216808612046AC
:102AA00000F036F820680069C0F3C01058B1206803
:102AB000C068C0F3C01030B16FF0800021680861B9
:102AC0002046FFF74FFE20680069C0F3801058B120
:102AD0002068C068C0F3801030B16FF040002168FA
:102AE0000861204600F04AF820680069C0F34010F1
:102AF00058B12068C068C0F3401030B16FF02000BA
:102B0000216808612046FFF72EFE10BD7047704710
:102B10000168B1F1804F28D114490968491C134A52
:102B2000116013490968491C114A1160114609686E
:102B3000B1F57A7F16D10F490968491C0D4A116019
:102B4000114609683C2906D104210B4A1170002165
:102B5000084A116002E00321074A11700021044A6B
:102B6000116002E00221044A117070471400002035
:102B700034000020380000203000002070470000A2
:102B800010B50248FEF7EDF810BD00001C02002051
:102B900010B50248FEF7E5F810BD00005402002011
:102BA00000B587B01A481B49086000204860002122
:102BB00018488160C1600161042141610021816187
:102BC000C161012101620021416201218162C16272
:102BD0000021016341638163C163FDF7F9FD18B111
:102BE0004C210DA001F05AF8012001900290002024
:102BF000039004900590069001A90648FDF798FB04
:102C000018B1592104A001F049F807B000BD000037
:102C100000000450840000202E2E2F5372632F6179
:102C200064632E630000000000B587B000BF6348F6
:102C3000C06C40F004006149C8640846C06C00F0F4
:102C40000400019000BF00BF00BF0846C06C40F008
:102C50008000C8640846C06C00F08000019000BF8E
:102C600000BF00BF0846C06C40F00100C8640846C1
:102C7000C06C00F00100019000BF00BF00BF08461B
:102C8000C06C40F00200C8640846C06C00F002004E
:102C9000019000BF00BF00BF0846C06C40F00800B4
:102CA000C8640846C06C00F00800019000BF00BF77
:102CB000002230214FF09040FDF794FF00221021B8
:102CC0003F48FDF78FFF00224FF480513D48FDF74C
:102CD00089FF4FF4005002903B480390002004907D
:102CE00002A93748FDF798FE41F6E27002900320F2
:102CF00003900020049002A93148FDF78DFE49F6AB
:102D000001700290032003900020049002A94FF06C
:102D10009040FDF781FE0C200290022003900020DD
:102D20000490032005900720069002A94FF09040E0
:102D3000FDF772FE302002900120039000200490E5
:102D4000059002A94FF09040FDF766FE102002901A
:102D50000120039000200490059002A91848FDF777
:102D60005BFE4EF6F73002900320039000200490A3
:102D700002A91448FDF750FE4FF480500290012044
:102D8000039000200490059002A90E48FDF744FE30
:102D900004200290032003900020049002A90B4815
:102DA000FDF73AFE082002900320039000200490D3
:102DB00002A90748FDF730FE07B000BD0010024031
:102DC000000800480004004800002110000C0048E2
:102DD000001C004810B50D480D49086000204860EF
:102DE0004FF420610A4881604FF6FF714161002174
:102DF000016241628162C1620163FEF725F818B188
:102E00004F2104A000F04AFF10BD0000007C0040EC
:102E10001C0200202E2E2F5372632F6C7074696D6C
:102E20002E63000010B50D480D4908600020486071
:102E30004FF420610A4881604FF6FF714161002123
:102E4000016241628162C1620163FDF7FDFF18B159
:102E5000622104A000F022FF10BD00000094004099
:102E6000540200202E2E2F5372632F6C7074696DE4
:102E70002E63000000B587B026482749086000206F
:102E800048607F2124488160FF21C16000210161E9
:102E900041618161C161FFF751F818B143211FA061
:102EA00000F0FCFE00211C48FFF736F843F2F22147
:102EB00088422CD000208DF808008DF809008DF88C
:102EC0000A0005900690012202A91348FFF74EF967
:102ED00018B1502111A000F0E1FE01208DF804008E
:102EE0008DF805008DF8060000208DF807000122FE
:102EF00001A90948FFF7A8F818B15A2107A000F066
:102F0000CDFE43F2F22200210348FFF70EF807B08E
:102F100000BD000000280040F00000202E2E2F539E
:102F200072632F7274632E630000000010B51248A4
:102F3000124908604FF48270486000210F48816098
:102F40004FF4E061C1600021016141614FF4007103
:102F500081610021C1610162416281620721C16218
:102F6000002101634163FFF7C2F918B1482104A0B1
:102F700000F094FE10BD000000300140540100201C
:102F80002E2E2F5372632F7370692E630000000082
:102F900010B51248124908604FF482704860002151
:102FA0000F4881604FF4E061C1600221016101219D
:102FB0004161490281610021C16101624162816216
:102FC0000721C162002101634163FFF790F918B145
:102FD000602104A000F062FE10BD00000038004037
:102FE000B80100202E2E2F5372632F7370692E6349
:102FF0000000000000B587B04FF08040164908601F
:10300000C72048600021144881600921C160002167
:1030100001618161FFF7D8FB18B141210FA000F0D9
:103020003DFE4FF48050039003A90B48FFF706FCC8
:1030300018B1472109A000F031FE00200090029055
:1030400069460548FFF790FB18B14E2103A000F038
:1030500025FE07B000BD0000140100202E2E2F53C6
:1030600072632F74696D2E630000000002480068CF
:10307000C0F30220704700000CED00E010B50028FE
:1030800007DA0A07140E054A00F00F031B1FD45479
:1030900003E00A07130E024A135410BD18ED00E0B6
:1030A00000E400E02DE9F04104460E46002700252B
:1030B0005B48C06800F0030090B15948C06800F058
:1030C00003002168884209D1206838B15448C0689B
:1030D000C0F30210401C6168884233D0012531E002
:1030E0002068012804D0022809D003281AD10DE055
:1030F0004B48006800F0020000B9012514E0484880
:10310000006800F4806000B901250DE044480068C3
:1031100000F4003028B94248006800F4802000B96B
:10312000012501E0012500BF00BF5DB9D4E9001011
:10313000401E41EA00103A49C96821F07301084372
:103140003749C860002D67D13548006820F080609D
:1031500033490860FDF74CFD074606E0FDF748FDE2
:10316000C01B022801D9032505E02D48006800F0A6
:1031700000600028F2D100BFC5BB66B9A06800029C
:10318000217B40EAC16026490969264A114008436B
:103190002349086120E0012E0FD1A0680002218A96
:1031A0000122C2EB510140EA41501D4909691E4A02
:1031B000114008431A4908610EE0A0680002217D11
:1031C0000122C2EB510140EA416015490969174AE1
:1031D00011400843124908611148006840F08060BE
:1031E0000F490860FDF704FD074607E014E0FDF70E
:1031F000FFFCC01B022801D9032505E00848006830
:1032000000F000600028F2D000BF2DB9044800692A
:10321000A1690843024908612846BDE8F081000021
:1032200000100240FF80FF07FF809FFFFF80FFF933
:10323000F8B50446002600252348806D00F0805034
:1032400018B1FDF793FF064616E000BF1E48806DDB
:1032500040F080501C4988650846806D00F0805021
:10326000009000BF00BFFDF781FF06461648806D45
:1032700020F0805014498865B6F5007F07D1802C76
:1032800010D9A02C01D902250CE001250AE0802CE0
:1032900001D9032506E0802C01D1022502E0702C23
:1032A00000D101250948006820F00700284307499C
:1032B00008600846006800F00700A84201D001201D
:1032C000F8BD0020FCE70000001002400020024092
:1032D000014600BF080900EB8000420001F00F002A
:1032E0001044C0B270470146002203E0521CA1F115
:1032F0000A00C1B20A29F9DA100741EA10607047E2
:1033000070B5044600252068C06800F04000A0B9F0
:10331000681E2168C860FDF76BFC054607E0FDF7F5
:1033200067FC401BB0F57A7F01D9032070BD20688F
:10333000C06800F040000028F1D00020F6E700004F
:1033400010B5012211030348FDF74CFCFF2000F0EB
:1033500085FA10BD0004004870B505460122002121
:10336000092000F0AEF9044624B91021284600F0E7
:103370004FF90446FFF7E4FF0CB1012070BD0020B7
:10338000FCE770B505464FF6FF7401E0601E84B29D
:10339000FF2000F063FAA84201D0002CF6D10CB94E
:1033A000FF2070BD0020FCE77FB56846FFF7D4FF23
:1033B00010B1002004B070BD9DF8000000F0C00006
:1033C000402809D19DF809009DF8081000EB012064
:1033D000401C84B2A50220E09DF8050000F00F001B
:1033E0009DF80A1000EBD1109DF8091001F00301BF
:1033F00000EB4100861C9DF8080080119DF8071025
:1034000000EB81009DF8061001F0030100EB812024
:10341000441CA6F1090004FA00F52846CAE700009A
:10342000F8B5142600F0E8F9002504E0FF2000F0CC
:1034300015FA681C85B20A2DF8DB142600BF952208
:103440000021084600F03DF90446012C04D0301E4E
:10345000A6F101018EB2F2D1012C4BD187224FF49B
:10346000D571082000F02DF9012848D1002506E08B
:10347000FF2000F0F3F90DF80500681C85B2042D5B
:10348000F6DB9DF8020001287AD19DF80300AA28F6
:1034900076D14FF6FE7600BF01220021372000F0E2
:1034A00010F901229107292000F00BF9044624B1FC
:1034B000301EA6F101018EB2EED1002E60D00122A5
:1034C00000213A2000F0FDF8002859D1002506E03F
:1034D000FF2000F0C3F90DF80500681C85B2042D2B
:1034E000F6DB9DF8000000F04000402803D10620E4
:1034F0002749087044E004202549087040E0012273
:103500000021372000F0DDF801220021292000F001
:10351000D8F80446012C17DC02201D4908704FF62C
:10352000EE7600BF01220021372000F0CAF8012208
:103530000021292000F0C5F80446BCB1301EA6F1D8
:1035400001018EB2EED111E00120114908704FF651
:10355000FE7600BF01220021104600F0B2F80446BA
:1035600024B1301EA6F101018EB2F3D12EB1012299
:103570005102102000F0A5F810B100200449087095
:10358000FFF7DEFE00F034F901480078F8BD0000D6
:103590003C0000202DE9F04106460F4615461B4829
:1035A0000078062800D07F02012D0CD10122394677
:1035B000112000F086F80446FCB96902304600F09C
:1035C00027F8044619E001223946122000F079F864
:1035D000044600BF4FF40071304600F019F804466D
:1035E00006F50076681EC0B2051E01D0002CF1D091
:1035F000012200210C2000F064F8FFF7A1FE14B9AD
:103600000020BDE8F0810120FBE700003C00002025
:1036100070B504460D46FE20FFF7B3FEFF2801D12A
:10362000012070BD04E0FF2000F018F92070641C38
:10363000281EA5F101018DB2F5D1FF2000F00EF991
:10364000FF2000F00BF90020EBE7000010B500228E
:103650004FF480510548FDF7C5FA00F06FF808B93E
:10366000002010BDFFF76CFE0120FAE700040048BF
:1036700070B506460D4600F061F8012800D170BD16
:10368000284600F0EBF8FD2D19D0002404E0305D51
:1036900000F0E4F8601C84B2B4F5007FF7DBFF2093
:1036A00000F0DCF8FF2000F0D9F8FF2000F0D6F899
:1036B000044604F01F00052801D00120DFE70020A8
:1036C000DDE72DE9F04105460C4617464FF00008AE
:1036D000FFF736FEFFF7BAFF012802D1FF20BDE851
:1036E000F08145F0400000F0B9F8200E00F0B6F887
:1036F000C4F3074000F0B2F8C4F3072000F0AEF8BE
:10370000E0B200F0ABF8384600F0A8F80C2D02D17A
:10371000FF2000F0A3F84FF01F0800BFFF2000F0CB
:103720009DF8064606F0800030B1B8F10000A8F11F
:10373000010101F0FF08F1D13046D0E710B50024B7
:1037400000BFFF2000F08AF8FF2801D1002010BD43
:10375000641C6FF07F408442F3D30120F7E7000040
:103760002DE9F04106460F46154620480078062808
:1037700000D07F02012D0CD1012239461820FFF71D
:10378000A0FF04466CBBFE213046FFF771FF0446E4
:1037900027E016480078012809D0012200213720AF
:1037A000FFF78FFF012229461720FFF78AFF01222A
:1037B00039461920FFF785FF044694B900BFFC2164
:1037C0003046FFF755FF044606F50076681EC0B286
:1037D000051E01D0002CF2D0FD210020FFF748FF8C
:1037E0000446FFF7ADFD2046BDE8F0813C00002017
:1037F00010B5FFF7CDFB10BD10B512481249086097
:103800004FF48270486000210F4881604FF4E061FE
:10381000C1600221016101214161490281611021E0
:10382000C16100210162416281620721C162002100
:1038300001634163FEF75BFD18B1E32103A000F0D3
:103840002DFA10BD00380040B80100202E2E2F5355
:1038500072632F7370692E63000000003EB504464A
:103860000294002001900A20012301AA02A90090DD
:103870000248FEF7FDFD9DF804003EBDB8010020A2
:10388000F8B504460E461546334600224FF4C051A3
:103890002046009500F026F828B1206E40F0200068
:1038A00020660320F8BD3346002280212046009583
:1038B00000F070F828B1206E40F020002066032050
:1038C000F0E7334600224FF4C0612046009500F037
:1038D00009F828B1206E40F0200020660320E1E7BF
:1038E0000020DFE72DE9F84304460E4617461D4643
:1038F000DDF8208047E0B6F5C06F05D127B9206814
:10390000007B00909DF80000681CD8B32DB1FDF736
:103910006FF9A0EB0800A84235D32068406820F07A
:10392000E000216848606068B0F5827F0DD1A06832
:10393000B0F5004F03D0A068B0F5806F05D12068C6
:10394000006820F0400021680860A06AB0F5005FC0
:103950000DD100BF2068006820F400502168086085
:103960002068006840F400502168086000BF012012
:1039700084F85D0000BF002084F85C0000BF0320D5
:10398000BDE8F883FFE7206880683040B842B2D1D4
:103990000020F5E72DE9F04104460E4617461D4686
:1039A000DDF818803EE0681CD8B32DB1FDF720F992
:1039B000A0EB0800A84235D32068406820F0E00062
:1039C000216848606068B0F5827F0DD1A068B0F5CD
:1039D000004F03D0A068B0F5806F05D12068006863
:1039E00020F0400021680860A06AB0F5005F0DD1AA
:1039F00000BF2068006820F400502168086020683B
:103A0000006840F400502168086000BF012084F87D
:103A10005D0000BF002084F85C0000BF0320BDE80B
:103A2000F081FFE7206880683040B04201D101207A
:103A300000E00020B842B6D10020F0E710B5FDF755
:103A4000DDF8FEF78BFE10BD10B5B0B018201F904A
:103A500001202490259000202690502027900020BF
:103A600029901FA8FDF70EFF18B1AB2121A000F08F
:103A700015F90F201A9000201B901C901D901E908D
:103A800000211AA8FDF784FD18B1B92119A000F092
:103A900005F91C4800904FF480201190800012908E
:103AA0004FF0405017904FF4007019906846FDF7A2
:103AB00065FB18B1C4210FA000F0F0F84FF40070BE
:103AC000FDF70EFB18B1CB210AA000F0E7F8FDF7D7
:103AD0004DFE4FF47A71B0FBF1F42046FEF724FE60
:103AE0000420FEF70CFE00221146501EFDF7A3FA3B
:103AF00030B010BD2E2E2F5372632F6D61696E2E64
:103B000063000000004602001048006840F47000A6
:103B10000E4908600E48006840F001000C4908603A
:103B200000208860084600680A4908400849086083
:103B30008814C8600846006820F4802008600020CF
:103B40008861C803014980390860704788ED00E04A
:103B500000100240FFFFF6EA10B50248FEF70BFF27
:103B600010BD000014010020002202681B4B984287
:103B700005D0B0F1804F02D0194B984203D122F00A
:103B800070024B681A43154B98420BD0B0F1804F2E
:103B900008D0134B984205D0124B984202D0124BDA
:103BA000984203D122F44072CB681A4322F080027B
:103BB0004B691A4302608B68C3620B688362074BD0
:103BC000984205D0074B984202D0074B984201D14A
:103BD0000B6903630123436170470000002C01401F
:103BE00000040040004001400044014030B50C4654
:103BF0000021816821F47F4142EA032525432943BE
:103C0000816030BD0A460021816821F0700142F0D8
:103C1000070319438160704730B50B4614460021F5
:103C20000022026A056A25F001050562816921F01A
:103C3000F00141EA041122F00A021A438161026292
:103C400030BD30B50B46144600210022056A25F030
:103C5000100505628169026A21F4704141EA04316C
:103C600022F0A00242EA03128161026230BD00002C
:103C700010B54FF47A710448FDF741F818B1B0213E
:103C800002A000F00BF810BD1C0200202E2E2F53B6
:103C900072632F6C7074696D2E63000000BFFEE7C5
:103CA00002E008C8121F08C1002AFAD17047704705
:103CB000002001E001C1121F002AFBD17047000063
:103CC00070B504460D4600202071401EE062294672
:103CD000204601F0D7F908B1032070BD94F82E12E8
:103CE00094F82F0241EA00204AF65521884201D07B
:103CF0000220F2E794F86900010694F8680041EAAE
:103D0000004194F8670041EA002094F866100843E7
:103D100020F07F400D49884201D10020DDE794F872
:103D20008500010694F8840041EA004194F883007C
:103D300041EA002094F88210084320F07F400349B4
:103D4000884201D10020C8E70120C6E7464154005F
:103D5000024600E0521C107810B110788842F9D168
:103D60001078704770B503460D46586A021D680A00
:103D70001E68B678B0FBF6F400BF02CA09B900208D
:103D800070BD8C4200D202E0641A121DF5E700BF3C
:103D900010682044F4E70246891E5069801E88425C
:103DA00001D8002070479378906A01FB0300F9E77F
:103DB0002DE9F04704468946B9F1000F06D1E768BE
:103DC00017B16069B84215D8012713E0494620466B
:103DD00001F032F80646022E02D20120BDE8F0873B
:103DE000701C08B93046F9E76069B04201D9304625
:103DF000F4E74F463D4600BF6D1C6069A84204D8F9
:103E00000225BD4201D90020E8E72946204601F0FD
:103E100013F8064606B909E0701C08B1012E01D15D
:103E20003046DBE7BD42E7D10020D7E700BF6FF0A7
:103E300070422946204601F03EF98046B8F1000F55
:103E400008D1B9F1000F05D02A464946204601F0B5
:103E500032F98046B8F1000F0BD1E5602069401CB3
:103E600078B12069401E2061607940F001006071E6
:103E700007E0B8F1010F02D14FF0FF3000E0012060
:103E800005462846AAE700002DE9F35F0198D0F81F
:103E9000009001E009F1010999F800002F28F9D0FC
:103EA00099F800005C28F5D0009886690B22202143
:103EB000304601F0DDF800252F46AB464FF0080AEA
:103EC00000BF58460BF1010B19F80040202C03DD10
:103ED0002F2C01D05C2C00D153E02E2C01D0574563
:103EE0000DD3BAF1080F01D12E2C02D0062000F01C
:103EF00077B808274FF00B0AA806050EE1E7802CDB
:103F000001DB45F00305812C20DBFE2C1EDC58462E
:103F10000BF1010B19F80080B8F1400F02DBB8F18A
:103F20007E0F05DDB8F1800F06DBB8F1FE0F03DC74
:103F3000AAF10100B84201D80620D8E738467F1C14
:103F4000345438467F1C06F8008019E0214620A032
:103F5000FFF7FEFE08B10620C9E7412C04DB5A2C0E
:103F600002DC45F0020508E0612C06DB7A2C04DC5B
:103F700045F00105A4F12000C4B238467F1C34543A
:103F80009FE700BF09EB0B0101980160202C01DCC9
:103F9000042000E0002004460FB90620A7E730788F
:103FA000E52801D105203070BAF1080F01D1A8062B
:103FB000050E05F00300012801D144F0100405F0BE
:103FC0000C00042801D144F00804F47200208EE7AC
:103FD000222A2B2C3A3B3C3D3E3F5B5D7C7F000020
:103FE0003CBCBDE8C09F2DE9F04104460E460021CF
:103FF000204600F0F9F80546EDB9002700BF216919
:10400000206801F03FF8054605B113E060690078CB
:10401000E52802D06069007820B9781C0746B042D4
:1040200001D107E000270121204600F038F80546BD
:10403000002DE4D000BF042D00D107252846BDE89F
:10404000F0812DE9F04104460021204600F0CCF833
:10405000054615B12846BDE8F08100BF21692068FA
:1040600001F010F8054605B116E0666937780FB91A
:10407000042511E0F07A00F0080030B90B22304638
:10408000A16900F0D5FF00B906E00021204600F04C
:1040900006F80546002DE1D000BF2846DBE72DE9F4
:1040A000F04104468846E088461CB0B208B1206959
:1040B00010B90420BDE8F08106F00F0000286CD193
:1040C0002069401C2061E06828B920680089B0425E
:1040D00063D80420EEE720688078401E00EA1610BE
:1040E00000285AD1E168206800F0A6FE0546012D9F
:1040F00001D80220DEE7681C08B90120DAE7206851
:104100004069A84243D8B8F1000F01D10420D1E79B
:10411000E1682068FFF74CFE05460DB90720C9E7A6
:10412000012D01D10220C5E7681C08B90120C1E7B3
:10413000206801F0FDF808B10120BBE7216801F11A
:1041400030004FF40072002100F092FF29462068F1
:10415000FFF721FE2168C86200270EE001202168D8
:104160000871206801F0E4F808B10120A2E7206896
:10417000C06A401C2168C8627F1C20688078B842F1
:10418000ECD82068C06AC01B2168C86200BFE56027
:1041900029462068FFF7FFFD2061E6802068303067
:1041A00006F00F0100EB41106061002082E770B55E
:1041B000044601212046FFF716FF054695B92169FF
:1041C000206800F05FFF054665B920220021606984
:1041D00000F04EFF0B22D4E9050100F03CFF012066
:1041E00021680871284670BD2DE9F04104460E464D
:1041F000E680A568012D03D020684069A84202D856
:104200000220BDE8F0812DB920680078032801D193
:104210002068456A45B920680089B04201D802206B
:10422000EFE72068476A1EE0206880784FEA0018B0
:1042300012E02946206800F0FFFD0546681C08B919
:104240000120DEE7022D03D320684069A84201D88F
:104250000220D6E7A6EB08064645EAD229462068A2
:10426000FFF799FD0746E5600FB90220C9E707EBA4
:10427000161020612068303006F00F0100EB41106D
:1042800060610020BDE770B505460024FFF7C8F85F
:10429000044634B9FFF7B0FAFF20FFF7DFFAFFF763
:1042A000A7FA0CB9012070BD0020FCE72DE9F04110
:1042B00007460E46154636B1012E1FD0022E14D0E9
:1042C000032E20D116E000224FF480511148FCF754
:1042D00089FCFFF733FA08B9002400E00124012229
:1042E00011030C48FCF77EFC0FE04FF400702880AF
:1042F00000240AE008202880002406E0FFF754F894
:104300002860002401E0042400BF00BF2046BDE86F
:10431000F0810000000400482DE9F04180460D4680
:1043200016461C46002714B90420BDE8F081E2B20D
:1043300031462846FFF72EF90746012F06D1FFF731
:104340005BFAFF20FFF78AFAFFF752FA0FB9002055
:10435000EBE70120E9E70146002070472DE9F04135
:1043600080460D4616461C46002714B90420BDE8B9
:10437000F081E2B231462846FFF7F2F907460FB95D
:104380000020F4E70120F2E770B50546284600F06A
:10439000C6F9044634B9284600F0F0FF04460CB9CB
:1043A00000202860204670BDF7B582B016460398FD
:1043B000019001A800F0B6FD0546002D02DA0B20A1
:1043C00005B0F0BD0E4850F825400CB1002020701B
:1043D000029810B10020029908700949029841F82A
:1043E0002500029808B1012E01D00020E8E7002244
:1043F00003A902A800F0E8FA07463846E0E7000003
:10440000400000202DE9F7438AB0054616461DB945
:1044100009200DB0BDE8F0830020286006F01F06DB
:1044200026F001020BA903A800F0CEFA0746002FE0
:104430007ED1CDF824D003A80B9900F08CFC074660
:10444000089C0FB904B9062706F01C00002851D0BB
:104450004FB1042F03D103A8FFF7A9FE074646F08A
:104460000806089C09E0E07A00F0110008B107276F
:1044700003E006F0040000B10827002F39D106F050
:104480000800002835D000F04BFD804684F80E80EF
:104490004FEA1821E1734FEA184121744FEA18617D
:1044A00061740020E072207700216177A177E177C5
:1044B0002146039800F05AFD81460021204600F075
:1044C000CBFE012003990871B9F1000F11D00398B8
:1044D000D0F82C804946039800F088FE074647B97B
:1044E000A9F101000399C8604146039800F0CAFD94
:1044F00007460EE06FB9E07A00F0100008B104271B
:1045000007E006F0020020B1E07A00F0010000B1FF
:10451000072747B906F0080008B146F020060398BF
:10452000C06AE8612C621FB9AE710020E87100E03A
:1045300018E02146039800F019FD2861E07F01068C
:10454000A07F41EA0041607F41EA0020217F0843CB
:10455000E8600020A860A861686203982860286865
:10456000C088A880384654E72DE9FF4F83B0044641
:1045700015469A46DDF810B00020CAF80000204623
:1045800000F0FCFE0290029818B1029807B000F00B
:10459000C3B8E07908B1E079F8E7A07900F001004C
:1045A00008B90720F2E7D4E90210401A00900098F9
:1045B000854200D9009DAAE02089C0F308000028A8
:1045C00076D120688078401EA16800EA512000F072
:1045D000FF09B9F1000F1FD1A06810B9206901903F
:1045E0000CE0606A28B12046A168FFF7BBFB019090
:1045F00004E06169206800F01FFC01900198022826
:1046000002D20220E071C1E70198401C10B90120DC
:10461000E071BBE70198606161692068FFF7BBFB4F
:10462000064616B90220E071B0E74E444FEA55281D
:10463000B8F1000F29D009EB080021688978884279
:1046400003D920688078A0EB0908216848784346A0
:1046500032465946FFF760FE10B10120E07195E740
:10466000A07900F0400068B1A069801B404509D2E4
:10467000A169891B0BEB41204FF4007204F1280162
:1046800000F0E9FC4FEA482737E0A069B04220D0AB
:10469000A07900F0400080B121684878012304F13E
:1046A0002801A269FFF75AFE18B10120E0716DE7F9
:1046B00010E0A07920F04000A07121684878012323
:1046C000324604F12801FFF727FE10B10120E07106
:1046D0005CE7A6612089C0F30800C0F50077AF420F
:1046E00000D92F462089C0F3080204F128001118D0
:1046F0003A46584600F0AFFC00BFBB44A0683844BF
:10470000A060DAF800003844CAF80000ED1B002D64
:104710007FF452AF002039E730BCBDE8C08F2DE9EF
:10472000F0410446204600F029FE0746002F4CD1F8
:10473000A07900F02000002847D0A07900F04000C8
:1047400078B121684878012304F12801A269FFF7B4
:1047500005FE10B10120BDE8F081A07920F04000F5
:10476000A071E169206800F08DFC0746002F2CD174
:10477000256AE87A40F02000E872207B2877A0893B
:10478000010A6977E068010CA977E068010EE97712
:104790002846216900F060FD00F0C2FB0646AE75B8
:1047A000310AE975310C2976310E69760020A8743A
:1047B0000021E974A07920F02000A0710120216877
:1047C0000871206800F050FD07463846C3E72DE920
:1047D000FF4F83B0044615469B4604980190002085
:1047E000CBF80000204600F0C9FD0290029818B1F5
:1047F000029807B000F0E4B8E07908B1E079F8E792
:10480000A07900F0020008B90720F2E7A068284468
:10481000A168884200D20025C2E02089C0F30800C8
:1048200000286FD120688078401EA16800EA5120DE
:1048300000F0FF0ABAF1000F2CD1A06858B9D4F8E3
:104840001080B8F1000F13D100212068FFF7B0FAF3
:10485000804620610CE0606A28B12046A168FFF71D
:1048600081FA804604E061692068FFF7A1FA80467A
:10487000B8F1000F00D196E0B8F1010F02D102208B
:10488000E071B6E708F1010010B90120E071B0E76E
:10489000C4F81480A07900F0400078B1216848780D
:1048A000012304F12801A269FFF758FD10B101208E
:1048B000E0719EE7A07920F04000A0716169206856
:1048C000FFF769FA064616B90220E07191E75644EF
:1048D0004FEA5529B9F1000F2BD00AEB09002168E6
:1048E0008978884203D920688078A0EB0A0921687A
:1048F00048784B4632460199FFF730FD18B1012048
:10490000E07176E729E0A069801B48450ED2A069D6
:10491000801B019A02EB40214FF4007204F1280041
:1049200000F099FBA07920F04000A0714FEA4927E0
:104930002AE0A069B0420FD0D4E9020188420BD22C
:10494000216848780123324604F12801FFF7E4FC8E
:1049500010B10120E0714CE7A6612089C0F3080086
:10496000C0F50077AF4200D92F462189C1F3080274
:1049700004F1280150183A46019900F06CFBA07927
:1049800040F04000A07100BF019838440190A06839
:104990003844A060DBF800003844CBF80000ED1B81
:1049A000002D7FF43AAF00BFD4E90201884201D95B
:1049B000A068E060A07940F02000A071002018E716
:1049C00030BCBDE8C08F00002DE9F74F88B0002152
:1049D00008980160099800F0A5FA07900798002848
:1049E00003DA0B200BB000F0B3B9D549079851F8A2
:1049F00020400CB90C20F5E708980460207878B1C5
:104A00006078FFF7A8FC804608F0010040B90A98DA
:104A100020B108F0040008B10A20E3E70020E1E734
:104A200000202070079860706078FFF72CFC8046AB
:104A300008F0010008B10320D4E70A9820B108F07B
:104A4000040008B10A20CDE7002739462046FFF7C9
:104A500037F90546012D01D06DBB2CE0002614E08E
:104A600004F5F77101EB0610017951B1C17A0A061C
:104A7000817A42EA0142417A42EA0121027A1143F3
:104A800000E000214DF82610761C042EE8D3002605
:104A900006B1761E00BF5DF8267027B13946204664
:104AA000FFF70EF900E0022005461DB1701C064616
:104AB0000428F0D300BF032D01D1012092E70DB1EE
:104AC0000D208FE73B20015D94F83C0041EA002077
:104AD000B0F5007F01D00D2084E74620015D94F8F9
:104AE000470041EA0029B9F1000F0ED194F85700B0
:104AF000010694F8560041EA004194F8550041EA55
:104B0000002094F8541040EA0109C4F8189040209D
:104B1000005DE070E078012804D0E078022801D040
:104B20000D205FE7E07809FB00F93D20005DA070F3
:104B3000A07818B1A078411E084008B10D2051E7B7
:104B40004120015D94F8420041EA00202081207A52
:104B500000F00F0008B10D2044E74320015D94F8F8
:104B6000440041EA002BBBF1000F0ED194F8530032
:104B7000010694F8520041EA004194F8510041EADC
:104B8000002094F8501040EA010B3E20015D94F89B
:104B90003F0041EA00200490049808B90D2021E765
:104BA00004984844218900EB11100690069883452B
:104BB00001D20D2016E70698ABEB0000A178B0FB00
:104BC000F1FABAF1000F01D10D200BE7012540F6F3
:104BD000F670824500D302254FF6F670824500D369
:104BE00003250AF102006061E761049838442062FD
:104BF00006983844A062032D16D1208908B10D20F3
:104C0000F0E694F85F00010694F85E0041EA004186
:104C100094F85D0041EA002094F85C10084360625B
:104C200060698000059014E0208908B90D20D9E65C
:104C3000206A48446062022D02D16069400007E0AA
:104C4000207D00F00100616901EB410100EB5100A2
:104C50000590A169059800F2FF10B1EB502F01D229
:104C60000D20BFE64FF0FF302061E06080206071D2
:104C7000032D5AD194F8601094F8610041EA0020A5
:104C8000012852D1791C204600F0FCF9E8BB002035
:104C9000607194F82E1294F82F0241EA00204AF62F
:104CA0005521884241D13320005D01063220005D4C
:104CB00041EA00413120005D41EA002094F83010C3
:104CC00008432049884230D194F81702010694F82D
:104CD000160241EA004194F8150241EA002094F8D6
:104CE00014120843184988421FD194F81B02010688
:104CF00094F81A0241EA004194F8190241EA0020AE
:104D000094F818120843206100E00EE094F81F02A6
:104D1000010694F81E0241EA004194F81D0241EA9E
:104D2000002094F81C120843E060257007480088B2
:104D3000401C80B205490880E080002052E6000057
:104D400040000020525261417272416144000020D3
:104D500030BCBDE8C08F2DE9F341044601980078CE
:104D60002F2803D0019800785C2802D10198401CBC
:104D700001900020A06001980078202807D200212F
:104D80002046FFF731FA05460020606128E000BFA9
:104D900001A92046FFF778F8054605B11FE0204637
:104DA000FFF74FF90546A069C67A3DB1042D04D13D
:104DB00000BF06F0040000B9052510E006F004006D
:104DC00000B10CE06769F87A00F0100008B9052519
:104DD00005E03946206800F0C9F8A060D8E700BFB8
:104DE0002846BDE8FC81000010B5002821D0114BF9
:104DF0000022001F196803E0814203D80A4649686F
:104E00000029F9D152B11368841A9C4204D1006878
:104E100018441060104602E0506000E0186039B19C
:104E200002680B1A934203D10B681A440260496866
:104E3000416010BD7C0000202DE9F04105460C4684
:104E4000022C02D36869A04202D80120BDE8F0819B
:104E50002878012804D002282CD003285AD13DE01C
:104E6000274607EB5707286A00EB5721284600F032
:104E700009F900B150E0C7F3080105F1300010F85E
:104E800001807F1C286A00EB5721284600F0FAF8C1
:104E900000B141E0C7F3080105F13000405C48EA89
:104EA000002804F0010010B14FEA1810CEE7C8F353
:104EB0000B00CBE7286A00EB1421284600F0E2F84B
:104EC00000B129E040F2FF1000EA440105F1300092
:104ED0000E183078717840EA0120B7E7286A00EBB5
:104EE000D411284600F0CEF800B115E040F2FF10D2
:104EF00000EA840105F130000E18F0780006B17860
:104F000040EA0140717840EA01203178084320F0FE
:104F100070409BE7012099E700BF4FF0FF3095E715
:104F20000020704770B502464FF0FF301568DDB1C4
:104F3000116800E0491C0D78212D02D30D783A2D1F
:104F4000F8D10D783A2D0ED1146814F8015BA5F153
:104F500030030A2B06D28C4204D11BB918464D1CD3
:104F60002946156070BD002000BFFBE710B5024662
:104F70008C7ECB7E44EA03201378032B05D10C7D75
:104F80004B7D44EA032340EA034010BDFBF73EFE9D
:104F9000FEF75AFDFDF748FEFDF7C8FFFDF7F8FFE5
:104FA000FDF718FFFDF73EFFFEF724F8FDF762FF5F
:104FB000FDF7F6FDFEF75CFE03E0FBF719F900BF15
:104FC000FEE7FAE7F0B50B30154D20F0070100249D
:104FD000144A0FE003688B420BD38B4205D95E1A4B
:104FE00043184768C3E9006700E04368136002C0E4
:104FF00004E0021D10680028ECD12046002802D1F0
:10500000286808B10020F0BD064A07481060074A2A
:10501000121A22F00702C0E9002401202860D7E715
:10502000800000207C0000201C05002018250020A6
:10503000F0B503461C460D46002000BF161EA2F127
:10504000010207D014F8017B15F801CBA7EB0C0681
:10505000301EF3D0F0BD70B503460C4603E014F8E3
:10506000015B03F8015B151EA2F10102F7D170BDCF
:1050700030B5034601E003F8011B141EA2F1010242
:10508000F9D130BD70B504460D46E06AA84210D093
:10509000204600F04DF908B1012070BD6078012371
:1050A0002A4604F13001FFF737F908B10120F4E78F
:1050B000E5620020F1E72DE9F04705460E46174668
:1050C000022E02D36869B04202D84FF002088AE08B
:1050D0002878012804D0022841D003287DD154E04B
:1050E000B14609EB5909286A00EB59212846FFF718
:1050F000C9FF8046B8F1000F00D071E0C9F3080184
:1051000005F130000C1806F0010020B1F9B220784A
:1051100061F31F1000E03846207009F101090120F9
:105120002871286A00EB59212846FFF7ABFF80461B
:10513000B8F1000F00D053E0C9F3080105F13000C9
:105140000C1806F0010010B1C7F3071005E0207835
:1051500000F0F000C7F303210843207040E0286A04
:1051600000EB16212846FFF78DFF8046B8F1000FAF
:1051700000D035E040F2FF1000EA460105F13000B2
:105180000C182770380A60702AE0286A00EBD611E4
:105190002846FFF777FF8046B8F1000F00D01FE0E8
:1051A00040F2FF1000EA860105F130000C18E078AB
:1051B0000006A17840EA0140617840EA01202178A8
:1051C000084300F0704007432770380A6070380CBD
:1051D000A070380EE07003E0FFE74FF0020800BF58
:1051E00000BF012028714046BDE8F0872DE9F0415D
:1051F00004460E46022E02D36069B04201D802274F
:1052000027E0002721E031462046FFF715FE05463E
:1052100005B91DE0012D01D1022719E0681C08B96C
:10522000012715E0002231462046FFF744FF0746DC
:1052300007B10DE02069401C30B12069401C20619D
:10524000607940F0010060712E466069B042DAD8A2
:1052500000BF3846BDE8F08181760B0AC3760A0CA0
:1052600002750B0E4375704770B50446204600F07A
:105270005FF80546002D59D1207803284FD1607979
:1052800001284CD14202002104F13000FFF7F0FE6A
:10529000552184F82E12AA2184F82F12522084F866
:1052A0003000522131200155612132200155412128
:1052B00033200155722184F8141284F8151241210B
:1052C00084F81612612184F81712217C84F81812D0
:1052D000208A010A84F819122069010C84F81A1234
:1052E0002069010E84F81B12217B84F81C12A0890E
:1052F000010A84F81D12E068010C84F81E12E068AF
:10530000010E84F81F12E069401CE06260780123FE
:1053100004F13001E26AFFF721F800206071607843
:1053200000221146FEF7C2FF00B10125284670BDDC
:1053300070B504462079F8B1E56A607801232A4601
:1053400004F13001FFF70AF808B1012070BD002018
:105350002071206A281AA16988420DD2E67809E0F6
:10536000A0690544607801232A4604F13001FEF764
:10537000F5FF761E022EF3D20020E7E770B5054652
:105380002C464CB1206838B12068007820B12068E4
:10539000C088A188884201D0092070BD2168487862
:1053A000FEF7D9FF00F0010008B10320F5E7002067
:1053B000F3E7000000000000000000000102030409
:1053C000060708090000000001020304A08601008E
:1053D000400D0300801A060000350C0040420F000B
:1053E00080841E0000093D0000127A000024F400B1
:1053F00000366E010048E801006CDC021C54000815
:105400000000002084000000A03C0008A054000818
:105410008400002094280000B03C00080000000038
:10542000000000000000000000000000000000007C
:10543000000000009A0200000000000000000000D0
:1054400000000000000000009A02000000000000C0
:10545000000000000000000000000000000000004C
:10546000000000000000000000000000000000003C
:1054700032323232200A3333333320353535350A70
:10548000003138303130332E747874000000000061
:105490000000000000093D000000000000000000C6
:040000050800019559
:00000001FF
